{
  "contractName": "TCCToken",
  "abi": [
    {
      "constant": true,
      "inputs": [],
      "name": "totalSupply",
      "outputs": [
        {
          "name": "",
          "type": "uint256"
        }
      ],
      "payable": false,
      "stateMutability": "view",
      "type": "function",
      "signature": "0x18160ddd"
    },
    {
      "inputs": [],
      "payable": false,
      "stateMutability": "nonpayable",
      "type": "constructor",
      "signature": "constructor"
    }
  ],
  "bytecode": "0x608060405234801561001057600080fd5b50620f423f600081905550609e806100296000396000f3fe608060405260043610603f576000357c0100000000000000000000000000000000000000000000000000000000900463ffffffff16806318160ddd146044575b600080fd5b348015604f57600080fd5b506056606c565b6040518082815260200191505060405180910390f35b6000548156fea165627a7a72305820d6385b94d7b4a9c9fbe42fe3b3de6a2148787bfc5df85b24acbccdfcd37d75840029",
  "source": "pragma solidity ^0.5.0;\r\n\r\ncontract TCCToken{\r\n    uint public totalSupply;\r\n    constructor () public {  //constructor runs when the contract is deployed\r\n        totalSupply=999999;\r\n\r\n    }\r\n}",
  "sourcePath": "C:/Users/himan/Desktop/bc/testerctoken/contracts/TCCToken.sol",
  "compiler": {
    "name": "solc",
    "version": "0.5.0+commit.1d4f565a.Emscripten.clang"
  },
  "schemaVersion": "3.0.2",
  "updatedAt": "2021-09-09T02:43:27.711Z",
  "devdoc": {
    "methods": {}
  },
  "userdoc": {
    "methods": {}
  }
}